:1000260041540D0A00574C414E204F4B2100574C6E
:10003600414E204552524F52210041542B43574ABC
:1000460041503D224F626974207465616D222C22F5
:100056007465736C612D6F6269745F7465616D227E
:100066000D0A0054435020436F6E6E656374696ECB
:10007600672E2E003E544F2053455256455200419E
:10008600542B43495053544152543D225443502219
:100096002C2273616E6774616F636C75622E6E6578
:1000A60074222C38300D0A003E4C4F43414C484FC9
:1000B60053540041542B43495053544152543D220A
:1000C600544350222C223139322E3136382E302EDE
:1000D600313037222C38300D0A004E6F20436F6EB8
:1000E6006E6563742100436F6E6E656374204F4BBB
:1000F6002100474554202F672E7068703F743D00DD
:1001060054656D703A200020430020485454502F07
:10011600312E300D0A00486F73743A20646B746296
:100126002E73616E6774616F636C75622E6E657493
:100136000D0A0D0A00486F73743A203139322E3198
:1001460036382E302E3130370D0A0D0A0041542B29
:1001560043495053454E443D000D0A0053656E64B5
:1001660020485454502E2E2E0053454E442045729E
:10017600726F722100204F4B210053656E743A2036
:100186000020427974650057616974696E6720447E
:100196006174612E2E2E0048545450204572726FA1
:1001A6007221004854545020323030204F4B2100E9
:1001B600436F6E74726F6C2E2E2E004F4B004C697F
:1001C6006E6B6564006F6B0053454E44204F4B00C9
:1001D600414C5245415920434F4E4E4543540044ED
:1001E6004F20414E20544F54204E47484945500019
:1001F60053746172696E672E2E2E00574C414E2045
:10020600496E69742E2E2E0054656D706572617488
:1002160075726520496E69740054656D706572610A
:10022600747572650053656E736F72204572726FD6
:0302360072210032
:0B0C3200EF1FAC0670011E4C70F62294
:040AAF007FF47E0151
:100AB300E4FDFCC3ED9FEC9E5016E4FBEBC3948C6A
:100AC3007480948050030B80F30DBD00010C80E310
:010AD3002200
:070BE500120AD47F0F7E000D
:0B0BEC00EF1FAC0670011E4C70F622DB
:100B8C00D2A4120BE8C2A47F4B7E00120BECD2A4B1
:070B9C007F197E00020BEC43
:100A8700E4FB7D08EDD39400748094804017C2A4E2
:100A9700EB13FBD2A430A4034303807F057E00122F
:070AA7000BEC1D80DFAF0323
:010AAE002225
:020AD400AD076C
:100AD6007B08EBD39400748094804016C2A4ED1377
:100AE60092A47F057E00120BECD2A4EDC313FD1B6E
:020AF60080E09E
:010AF80022DB
:1009E900E4FAFFC2AF120B8C7FCC120AD47F4412F7
:1009F9000BE5120B8C7FCC120AD47FBE120BE512C9
:100A09000A87AA07120A87EFFE7C00E42AFFEC3E58
:100A1900C4F854F0C8EFC4540F48F55B155B155B77
:020A2900D2AF4A
:010A2B0022A8
:030BD000120B7095
:100BD300D2947F057E00120C32C2947F3C7E0002C9
:020BE3000C32D2
:100B7000EF139293EFC313139292EF1313543F1397
:0C0B80009291EF131313541F1392902254
:100BF700AD07EDC4540FFF120BD0AF05120B7002F7
:020C07000BD30D
:0C0C1A007F01120BF77F0A7E00020AB374
:1009A400E4FF120B707F147E00120AB3C296C29544
:1009B4007F03120BD07F057E00120AB3120BD37F84
:1009C4006E7E00120C32120BD37F02120B70120BCC
:1009D400D37F28120BF77F0C120BF77F06120BF74D
:0509E4007F01020BF78A
:100A2C00E4FD120A3E7A01797B7BFF120B237D01D8
:020A3C00E4FFD5
:100A3E00ED7006EF2480FB8004EF24C0FB7FE87E80
:100A4E0003120C32AF03120BF77F327E00020C3210
:080C3D00D296120BF7C29622B9
:0B0B18007BFF120B237B007A00796743
:100B2300120410FF600C120C3D740129F9E43AFA27
:030B330080EE222F
:10094600EFFD7C00D39463748094804024EF75F0AF
:1009560064842430F567EF75F06484E5F075F00A79
:10096600842430F568EF75F00A84E5F02430F569E3
:1009760022D3ED9409EC64809480EF401775F00A59
:10098600842430F567EF75F00A84E5F02430F568C5
:0E099600E4F569222430F567E4F568F569227E
:060C090014F9120410FFB3
:0B0C0F00EF6007F5993099FDC29922B3
:100AF9008B768A778978AB76AA77A9781204106001
:0F0B09000D0578E57870020577120C0980E82257
:060003008B768A778978F4
:10000900E4FEEEC39D5012AB760578E578AA7770C9
:09001900020577120C090E80E9C2
:0100220022BB
:100B3600AD07AC068D828C83E49360100DED7001D9
:0D0B46000C14F582E493FF120C0F80E822DE
:100BBA00E4FFEFC39408748094805009746C2FF892
:050BCA00E4F60F80EDD0
:010BCF002203
:100B53008D828C83E49360140DED70010C14F58287
:0D0B6300E493FE74102FF8A6060F80E42224
:100A5E008B768A778978AB76AA77A978120410609C
:100A6E00170578E5787002057714F9120410FE74F4
:090A7E00102FF8A6060F80DE22FD
:1008500075740AC2B77F647E00120AB3D2B77FA054
:100860007E0F120AB3E4F50E7D01FF120A3ED2ACF0
:10087000D2AFAF741574EF60567E007F26120B3630
:100880007FE87E03120AB3E50E6401700B7BFF7AEA
:1008900000792B120B238037E57470D67BFF7A002A
:1008A0007934120B23C28EC2ACC2AFE4F55DB284C0
:1008B0007FEE7E02120AB3055DD3E55D9478748005
:1008C000948040EAD28ED2ACD2AF755D0180A37E17
:1008D000007F40120B367FD07E07120AB3020AB3A4
:100BA300C2AC3098FDEFB59907C298D2AC7F012251
:070BB300C298D2AC7F0022C2
:100239007575FAD285120C1A7BFF7A007969120B4F
:10024900237D01E4FF309512120A3E7BFF7A007983
:100259007A120B237E007F858010120A3E7BFF7A7B
:100269000079AE120B237E007FB9120B36E4F566D6
:10027900AF751575EF6030E575701D120C1A7BFFAF
:100289007A0079E0120B23D2857F107E27120AB3F8
:10029900750F96055E020409E566640160097F2809
:1002A9007E00120AB380C9C285120C1A7BFF7A003C
:1002B90079EC120B231209E97C007DF8E4FF120B9B
:1002C900538F74AF5B1209467B007A007967AF746C
:1002D900120A5E8F74120A3A7A017906120B187B98
:1002E900FF7A01790D120B237C017D10AF74120B7B
:1002F900538F743095067C017D1C80067C017D3B03
:10030900AF74120B538F74AF74120946D2857E01F4
:100319007F53120B367B007A007967120AF97E0146
:100329007F5F120B367F3E120BA3EF60F8C2851276
:100339000C1A7BFF7A017962120B237B007A007910
:1003490010AD74120003D285E4F5627575FFAF75BF
:100359001575EF601EE575700B120C1A7BFF7A019B
:10036900796F8058E562640160097F507E00120A46
:10037900B380DB7F09120A2C7A017980120B187B72
:10038900FF7A017987120B23E4F55FF55C7575FF38
:10039900C285120AAFE4FDFF120A3E7BFF7A01799A
:1003A9008D120B23D285AF751575EF602DE575702C
:1003B9001DD285120C1A7BFF7A01799D120B237FBE
:1003C900107E27120AB3750F96755E048032E55FB9
:1003D90070087F64FE120AB380CCC285120C1A7BA6
:1003E900FF7A0179A9120B23E55C6401700F120AE7
:1003F900AF120A3A7BFF7A0179B6120B23E4F55E54
:070409007F0A7E00020AB326
:10071000E56CB46120755C01E56D24D0FFC39406DF
:100720007480948040030207B4E56F24D0FE7408FF
:100730002FF8A60622786C7C007D007BFF7A017979
:10074000C11205A7EF3395E04F7004750E012278B2
:100750006C7C007D007BFF7A0179C41205A7EF3322
:1007600095E04F7002804A786C7C007D007BFF7AB8
:100770000179CB1205A7EF3395E04F7004755F0147
:1007800022786C7C007D007BFF7A0179CE1205A770
:10079000EF3395E04F700475620122786C7C007D28
:1007A000007BFF7A0179D61205A7EF3395E04F70F1
:0407B0000375660166
:0107B4002222
:030023000207B51C
:1007B500C0E0C0F0C083C082C0D075D000C000C00A
:1007C50001C002C003C004C005C006C00730986060
:1007D500859965E565FD7C00640A6005E565B425D8
:1007E5000FE564700B756401120BBA756300803EEA
:1007F500ED640D4C7013D3E56494007480948040CF
:10080500081207107564008025D3E5649400748090
:100815009480401A746C2563F8A6650563D3E56377
:100825009408748094804006756400120BBAC298CF
:10083500D007D006D005D004D003D002D001D00017
:0B084500D0D0D082D083D0F0D0E032C1
:1008E000D3E5089400748094804004D2978002C2BB
:1008F00097D3E5099400748094804004D2A78002C5
:10090000C2A7D3E50A9400748094804004D29280F8
:1009100002C292D3E50B9400748094804004D29379
:100920008002C293D3E50C9400748094804004D27A
:10093000968002C296D3E50D9400748094804003A3
:06094000D29722C29722AB
:1005C400759030D285D284D2B775892075985075CC
:1005D4008BFD758DFDD28E1209A4120AAF7BFF7AB2
:1005E4000179E5120B23C284120AAF120A3A7BFF87
:1005F4007A0179F6120B23E4F55DC3E55D94047486
:100604008094805015D2847FC87E00120AB3C284BD
:100614007F2C0E120AB3055D80E0120C1A7BFF7A60
:10062400027901120B23120850E55D64017004F590
:100634005D80C4120C1A7BFF7A02790E120B23120E
:1006440009E9AF5B7E00D3EF943C7480948050033F
:10065400EF70557FE87E03120AB31209E90561D3EE
:10066400E56194047480948040D8120C1A7A02795B
:100674001F120A357BFF7A02792B120B23C2ACC2FC
:10068400AFC28EE4F55DB284120AAF055D1ED3E5F8
:100694005D94827480948040EDD28ED2ACD2AF75DA
:1006A4005D01E55D6401709AE55D64017005F55DC9
:1006B4000205FB7F0C120A2C7BFF7A017906120BD0
:1006C40023AF5B120946120B1D7BFF7A01790D12D1
:1006D4000B237FE87E03120AB3750F96050FD3E54B
:1006E4000F9478748094804009E4F50F1202391253
:1006F40008E0D3E55E9402748094804006E4F55EDD
:0C0704000205FB7F647E00120AB380D067
:03000000020C26C9
:0C0C2600787FE4F6D8FD7581780205C4E3
:10041000BB010689828A83E0225002E722BBFE02EA
:09042000E32289828A83E493221D
:10042900E3F5F009E208B5F06D606B80F3E3F5F0F0
:1004390009E608B5F060605E80F387F009E608B563
:10044900F054605280F487F009E208B5F04860463C
:1004590080F488828C8387F009E0A3B5F038603690
:1004690080F488828C8387F009E493A3B5F0276030
:100479002580F388828C83E3F5F009E0A3B5F016B3
:10048900601480F388828C83E3F5F009E493A3B5C3
:10049900F004600280F2020554808580E7808E8036
:1004A900D2803C8015806C807E809B80B5808B805B
:1004B900A1804F8070803A02056089828A83ECFAB4
:1004C900E493F5F0A3C8C582C8CCC583CCE493A353
:1004D900C8C582C8CCC583CCB5F070606E80E1898F
:1004E900828A83E493F5F0A3E208B5F05E605C804C
:1004F900F289828A83E0F5F0A3E608B5F04D604BF6
:1005090080F389828A83E0F5F0A3E208B5F03C60C4
:100519003A80F389828A83E493F5F0A3E608B5F07B
:100529002A602880F2805389828A83ECFAE493F561
:10053900F0A3C8C582C8CCC583CCE0A3C8C582C80E
:10054900CCC583CCB5F004600280E27FFFB5F00230
:100559000F2240027F012289828A83ECFAE0F5F0BA
:10056900A3C8C582C8CCC583CCE0A3C8C582C8CC02
:10057900C583CCB5F0D560D380E389828A83ECFA50
:10058900E0F5F0A3C8C582C8CCC583CCE493A3C861
:10059900C582C8CCC583CCB5F0B160AF80E288F024
:1005A900ED2402B4040050A3F582EB2402B4040044
:0B05B900509923234582239004A27375
:00000001FF
